{
  "contractName": "Attendance",
  "abi": [
    {
      "inputs": [],
      "stateMutability": "nonpayable",
      "type": "constructor"
    },
    {
      "anonymous": false,
      "inputs": [
        {
          "indexed": true,
          "internalType": "string",
          "name": "nfcId",
          "type": "string"
        },
        {
          "indexed": false,
          "internalType": "uint256",
          "name": "timestamp",
          "type": "uint256"
        }
      ],
      "name": "AttendanceMarked",
      "type": "event"
    },
    {
      "anonymous": false,
      "inputs": [
        {
          "indexed": true,
          "internalType": "address",
          "name": "studentAddr",
          "type": "address"
        },
        {
          "indexed": false,
          "internalType": "string",
          "name": "nfcId",
          "type": "string"
        },
        {
          "indexed": false,
          "internalType": "string",
          "name": "name",
          "type": "string"
        }
      ],
      "name": "StudentRegistered",
      "type": "event"
    },
    {
      "inputs": [],
      "name": "admin",
      "outputs": [
        {
          "internalType": "address",
          "name": "",
          "type": "address"
        }
      ],
      "stateMutability": "view",
      "type": "function",
      "constant": true
    },
    {
      "inputs": [
        {
          "internalType": "string",
          "name": "",
          "type": "string"
        },
        {
          "internalType": "uint256",
          "name": "",
          "type": "uint256"
        }
      ],
      "name": "attendance",
      "outputs": [
        {
          "internalType": "uint256",
          "name": "timestamp",
          "type": "uint256"
        },
        {
          "internalType": "bool",
          "name": "present",
          "type": "bool"
        }
      ],
      "stateMutability": "view",
      "type": "function",
      "constant": true
    },
    {
      "inputs": [
        {
          "internalType": "address",
          "name": "",
          "type": "address"
        }
      ],
      "name": "studentsByAddr",
      "outputs": [
        {
          "internalType": "string",
          "name": "name",
          "type": "string"
        },
        {
          "internalType": "string",
          "name": "nfcId",
          "type": "string"
        },
        {
          "internalType": "bool",
          "name": "isRegistered",
          "type": "bool"
        }
      ],
      "stateMutability": "view",
      "type": "function",
      "constant": true
    },
    {
      "inputs": [
        {
          "internalType": "string",
          "name": "",
          "type": "string"
        }
      ],
      "name": "studentsByNfc",
      "outputs": [
        {
          "internalType": "string",
          "name": "name",
          "type": "string"
        },
        {
          "internalType": "string",
          "name": "nfcId",
          "type": "string"
        },
        {
          "internalType": "bool",
          "name": "isRegistered",
          "type": "bool"
        }
      ],
      "stateMutability": "view",
      "type": "function",
      "constant": true
    },
    {
      "inputs": [
        {
          "internalType": "address",
          "name": "_studentAddress",
          "type": "address"
        },
        {
          "internalType": "string",
          "name": "_nfcId",
          "type": "string"
        },
        {
          "internalType": "string",
          "name": "_name",
          "type": "string"
        }
      ],
      "name": "registerStudent",
      "outputs": [],
      "stateMutability": "nonpayable",
      "type": "function"
    },
    {
      "inputs": [
        {
          "internalType": "string",
          "name": "_nfcId",
          "type": "string"
        }
      ],
      "name": "markAttendance",
      "outputs": [],
      "stateMutability": "nonpayable",
      "type": "function"
    },
    {
      "inputs": [
        {
          "internalType": "string",
          "name": "_nfcId",
          "type": "string"
        }
      ],
      "name": "getAttendance",
      "outputs": [
        {
          "internalType": "uint256[]",
          "name": "",
          "type": "uint256[]"
        },
        {
          "internalType": "bool[]",
          "name": "",
          "type": "bool[]"
        }
      ],
      "stateMutability": "view",
      "type": "function",
      "constant": true
    }
  ],
  "bytecode": "0x608060405234801561000f575f80fd5b50335f806101000a81548173ffffffffffffffffffffffffffffffffffffffff021916908373ffffffffffffffffffffffffffffffffffffffff1602179055506116d78061005c5f395ff3fe608060405234801561000f575f80fd5b506004361061007b575f3560e01c8063801773df11610059578063801773df146100e8578063aac0a24814610119578063bac88db01461014b578063f851a4401461017d5761007b565b80632ae7b9001461007f57806359267a001461009b57806364a48527146100b7575b5f80fd5b61009960048036038101906100949190610c74565b61019b565b005b6100b560048036038101906100b09190610cfc565b610494565b005b6100d160048036038101906100cc9190610cfc565b6105d6565b6040516100df929190610ec5565b60405180910390f35b61010260048036038101906100fd9190610f24565b6107b8565b604051610110929190610f9c565b60405180910390f35b610133600480360381019061012e9190610fc3565b610816565b60405161014293929190611068565b60405180910390f35b61016560048036038101906101609190610cfc565b610954565b60405161017493929190611068565b60405180910390f35b610185610aaa565b60405161019291906110ba565b60405180910390f35b5f8054906101000a900473ffffffffffffffffffffffffffffffffffffffff1673ffffffffffffffffffffffffffffffffffffffff163373ffffffffffffffffffffffffffffffffffffffff1614610228576040517f08c379a000000000000000000000000000000000000000000000000000000000815260040161021f90611143565b60405180910390fd5b600182604051610238919061119b565b90815260200160405180910390206002015f9054906101000a900460ff1615610296576040517f08c379a000000000000000000000000000000000000000000000000000000000815260040161028d906111fb565b60405180910390fd5b5f151560025f8573ffffffffffffffffffffffffffffffffffffffff1673ffffffffffffffffffffffffffffffffffffffff1681526020019081526020015f206002015f9054906101000a900460ff16151514610328576040517f08c379a000000000000000000000000000000000000000000000000000000000815260040161031f90611263565b60405180910390fd5b5f60405180606001604052808381526020018481526020016001151581525090508060018460405161035a919061119b565b90815260200160405180910390205f820151815f01908161037b919061147b565b506020820151816001019081610391919061147b565b506040820151816002015f6101000a81548160ff0219169083151502179055509050508060025f8673ffffffffffffffffffffffffffffffffffffffff1673ffffffffffffffffffffffffffffffffffffffff1681526020019081526020015f205f820151815f019081610405919061147b565b50602082015181600101908161041b919061147b565b506040820151816002015f6101000a81548160ff0219169083151502179055509050508373ffffffffffffffffffffffffffffffffffffffff167f5a50055b3981e19f1c8cb31d2bf002360afb82c9a429fa8d5774508a689f75c9848460405161048692919061154a565b60405180910390a250505050565b6001816040516104a4919061119b565b90815260200160405180910390206002015f9054906101000a900460ff16610501576040517f08c379a00000000000000000000000000000000000000000000000000000000081526004016104f8906115c9565b60405180910390fd5b600381604051610511919061119b565b9081526020016040518091039020604051806040016040528042815260200160011515815250908060018154018082558091505060019003905f5260205f2090600202015f909190919091505f820151815f01556020820151816001015f6101000a81548160ff021916908315150217905550505080604051610594919061119b565b60405180910390207f01044d9fb672e2eec673dbc23e4059f71091634e6499c840a5ff72bc9b8cd971426040516105cb91906115e7565b60405180910390a250565b6060805f6003846040516105ea919061119b565b9081526020016040518091039020805480602002602001604051908101604052809291908181526020015f905b8282101561066a578382905f5260205f2090600202016040518060400160405290815f8201548152602001600182015f9054906101000a900460ff16151515158152505081526020019060010190610617565b5050505090505f815167ffffffffffffffff81111561068c5761068b610b50565b5b6040519080825280602002602001820160405280156106ba5781602001602082028036833780820191505090505b5090505f825167ffffffffffffffff8111156106d9576106d8610b50565b5b6040519080825280602002602001820160405280156107075781602001602082028036833780820191505090505b5090505f5b83518110156107a95783818151811061072857610727611600565b5b60200260200101515f015183828151811061074657610745611600565b5b60200260200101818152505083818151811061076557610764611600565b5b60200260200101516020015182828151811061078457610783611600565b5b60200260200101901515908115158152505080806107a19061165a565b91505061070c565b50818194509450505050915091565b60038280516020810182018051848252602083016020850120818352809550505050505081815481106107e9575f80fd5b905f5260205f2090600202015f9150915050805f015490806001015f9054906101000a900460ff16905082565b6002602052805f5260405f205f91509050805f018054610835906112ae565b80601f0160208091040260200160405190810160405280929190818152602001828054610861906112ae565b80156108ac5780601f10610883576101008083540402835291602001916108ac565b820191905f5260205f20905b81548152906001019060200180831161088f57829003601f168201915b5050505050908060010180546108c1906112ae565b80601f01602080910402602001604051908101604052809291908181526020018280546108ed906112ae565b80156109385780601f1061090f57610100808354040283529160200191610938565b820191905f5260205f20905b81548152906001019060200180831161091b57829003601f168201915b505050505090806002015f9054906101000a900460ff16905083565b6001818051602081018201805184825260208301602085012081835280955050505050505f91509050805f01805461098b906112ae565b80601f01602080910402602001604051908101604052809291908181526020018280546109b7906112ae565b8015610a025780601f106109d957610100808354040283529160200191610a02565b820191905f5260205f20905b8154815290600101906020018083116109e557829003601f168201915b505050505090806001018054610a17906112ae565b80601f0160208091040260200160405190810160405280929190818152602001828054610a43906112ae565b8015610a8e5780601f10610a6557610100808354040283529160200191610a8e565b820191905f5260205f20905b815481529060010190602001808311610a7157829003601f168201915b505050505090806002015f9054906101000a900460ff16905083565b5f8054906101000a900473ffffffffffffffffffffffffffffffffffffffff1681565b5f604051905090565b5f80fd5b5f80fd5b5f73ffffffffffffffffffffffffffffffffffffffff82169050919050565b5f610b0782610ade565b9050919050565b610b1781610afd565b8114610b21575f80fd5b50565b5f81359050610b3281610b0e565b92915050565b5f80fd5b5f80fd5b5f601f19601f8301169050919050565b7f4e487b71000000000000000000000000000000000000000000000000000000005f52604160045260245ffd5b610b8682610b40565b810181811067ffffffffffffffff82111715610ba557610ba4610b50565b5b80604052505050565b5f610bb7610acd565b9050610bc38282610b7d565b919050565b5f67ffffffffffffffff821115610be257610be1610b50565b5b610beb82610b40565b9050602081019050919050565b828183375f83830152505050565b5f610c18610c1384610bc8565b610bae565b905082815260208101848484011115610c3457610c33610b3c565b5b610c3f848285610bf8565b509392505050565b5f82601f830112610c5b57610c5a610b38565b5b8135610c6b848260208601610c06565b91505092915050565b5f805f60608486031215610c8b57610c8a610ad6565b5b5f610c9886828701610b24565b935050602084013567ffffffffffffffff811115610cb957610cb8610ada565b5b610cc586828701610c47565b925050604084013567ffffffffffffffff811115610ce657610ce5610ada565b5b610cf286828701610c47565b9150509250925092565b5f60208284031215610d1157610d10610ad6565b5b5f82013567ffffffffffffffff811115610d2e57610d2d610ada565b5b610d3a84828501610c47565b91505092915050565b5f81519050919050565b5f82825260208201905092915050565b5f819050602082019050919050565b5f819050919050565b610d7e81610d6c565b82525050565b5f610d8f8383610d75565b60208301905092915050565b5f602082019050919050565b5f610db182610d43565b610dbb8185610d4d565b9350610dc683610d5d565b805f5b83811015610df6578151610ddd8882610d84565b9750610de883610d9b565b925050600181019050610dc9565b5085935050505092915050565b5f81519050919050565b5f82825260208201905092915050565b5f819050602082019050919050565b5f8115159050919050565b610e4081610e2c565b82525050565b5f610e518383610e37565b60208301905092915050565b5f602082019050919050565b5f610e7382610e03565b610e7d8185610e0d565b9350610e8883610e1d565b805f5b83811015610eb8578151610e9f8882610e46565b9750610eaa83610e5d565b925050600181019050610e8b565b5085935050505092915050565b5f6040820190508181035f830152610edd8185610da7565b90508181036020830152610ef18184610e69565b90509392505050565b610f0381610d6c565b8114610f0d575f80fd5b50565b5f81359050610f1e81610efa565b92915050565b5f8060408385031215610f3a57610f39610ad6565b5b5f83013567ffffffffffffffff811115610f5757610f56610ada565b5b610f6385828601610c47565b9250506020610f7485828601610f10565b9150509250929050565b610f8781610d6c565b82525050565b610f9681610e2c565b82525050565b5f604082019050610faf5f830185610f7e565b610fbc6020830184610f8d565b9392505050565b5f60208284031215610fd857610fd7610ad6565b5b5f610fe584828501610b24565b91505092915050565b5f81519050919050565b5f82825260208201905092915050565b5f5b8381101561102557808201518184015260208101905061100a565b5f8484015250505050565b5f61103a82610fee565b6110448185610ff8565b9350611054818560208601611008565b61105d81610b40565b840191505092915050565b5f6060820190508181035f8301526110808186611030565b905081810360208301526110948185611030565b90506110a36040830184610f8d565b949350505050565b6110b481610afd565b82525050565b5f6020820190506110cd5f8301846110ab565b92915050565b7f4f6e6c792061646d696e2063616e20706572666f726d207468697320616374695f8201527f6f6e000000000000000000000000000000000000000000000000000000000000602082015250565b5f61112d602283610ff8565b9150611138826110d3565b604082019050919050565b5f6020820190508181035f83015261115a81611121565b9050919050565b5f81905092915050565b5f61117582610fee565b61117f8185611161565b935061118f818560208601611008565b80840191505092915050565b5f6111a6828461116b565b915081905092915050565b7f4e464320494420616c72656164792072656769737465726564000000000000005f82015250565b5f6111e5601983610ff8565b91506111f0826111b1565b602082019050919050565b5f6020820190508181035f830152611212816111d9565b9050919050565b7f4164647265737320616c726561647920757365640000000000000000000000005f82015250565b5f61124d601483610ff8565b915061125882611219565b602082019050919050565b5f6020820190508181035f83015261127a81611241565b9050919050565b7f4e487b71000000000000000000000000000000000000000000000000000000005f52602260045260245ffd5b5f60028204905060018216806112c557607f821691505b6020821081036112d8576112d7611281565b5b50919050565b5f819050815f5260205f209050919050565b5f6020601f8301049050919050565b5f82821b905092915050565b5f6008830261133a7fffffffffffffffffffffffffffffffffffffffffffffffffffffffffffffffff826112ff565b61134486836112ff565b95508019841693508086168417925050509392505050565b5f819050919050565b5f61137f61137a61137584610d6c565b61135c565b610d6c565b9050919050565b5f819050919050565b61139883611365565b6113ac6113a482611386565b84845461130b565b825550505050565b5f90565b6113c06113b4565b6113cb81848461138f565b505050565b5b818110156113ee576113e35f826113b8565b6001810190506113d1565b5050565b601f82111561143357611404816112de565b61140d846112f0565b8101602085101561141c578190505b611430611428856112f0565b8301826113d0565b50505b505050565b5f82821c905092915050565b5f6114535f1984600802611438565b1980831691505092915050565b5f61146b8383611444565b9150826002028217905092915050565b61148482610fee565b67ffffffffffffffff81111561149d5761149c610b50565b5b6114a782546112ae565b6114b28282856113f2565b5f60209050601f8311600181146114e3575f84156114d1578287015190505b6114db8582611460565b865550611542565b601f1984166114f1866112de565b5f5b82811015611518578489015182556001820191506020850194506020810190506114f3565b868310156115355784890151611531601f891682611444565b8355505b6001600288020188555050505b505050505050565b5f6040820190508181035f8301526115628185611030565b905081810360208301526115768184611030565b90509392505050565b7f53747564656e74206e6f742072656769737465726564000000000000000000005f82015250565b5f6115b3601683610ff8565b91506115be8261157f565b602082019050919050565b5f6020820190508181035f8301526115e0816115a7565b9050919050565b5f6020820190506115fa5f830184610f7e565b92915050565b7f4e487b71000000000000000000000000000000000000000000000000000000005f52603260045260245ffd5b7f4e487b71000000000000000000000000000000000000000000000000000000005f52601160045260245ffd5b5f61166482610d6c565b91507fffffffffffffffffffffffffffffffffffffffffffffffffffffffffffffffff82036116965761169561162d565b5b60018201905091905056fea2646970667358221220f3d866c97f468dc91f08f2243cf2dac800c638b23ab66e5742e3d4d1d541f89564736f6c63430008150033",
  "immutableReferences": {},
  "source": "// SPDX-License-Identifier: MIT\r\npragma solidity ^0.8.0;\r\n\r\ncontract Attendance {\r\n    address public admin;\r\n\r\n    struct Student {\r\n        string name;\r\n        string nfcId;       // Unique NFC tag UID (as string)\r\n        bool isRegistered;\r\n    }\r\n\r\n    struct AttendanceRecord {\r\n        uint256 timestamp;\r\n        bool present;\r\n    }\r\n\r\n    mapping(string => Student) public studentsByNfc;   // nfcId => Student\r\n    mapping(address => Student) public studentsByAddr; // student address => Student\r\n    mapping(string => AttendanceRecord[]) public attendance; // nfcId => records\r\n\r\n    event StudentRegistered(address indexed studentAddr, string nfcId, string name);\r\n    event AttendanceMarked(string indexed nfcId, uint256 timestamp);\r\n\r\n    modifier onlyAdmin() {\r\n        require(msg.sender == admin, \"Only admin can perform this action\");\r\n        _;\r\n    }\r\n\r\n    constructor() {\r\n        admin = msg.sender;\r\n    }\r\n\r\n    // Register a new student (admin only)\r\n    function registerStudent(\r\n        address _studentAddress,\r\n        string memory _nfcId,\r\n        string memory _name\r\n    ) public onlyAdmin {\r\n        require(!studentsByNfc[_nfcId].isRegistered, \"NFC ID already registered\");\r\n        require(studentsByAddr[_studentAddress].isRegistered == false, \"Address already used\");\r\n\r\n        Student memory newStudent = Student({\r\n            name: _name,\r\n            nfcId: _nfcId,\r\n            isRegistered: true\r\n        });\r\n\r\n        studentsByNfc[_nfcId] = newStudent;\r\n        studentsByAddr[_studentAddress] = newStudent;\r\n        emit StudentRegistered(_studentAddress, _nfcId, _name);\r\n    }\r\n\r\n    // Mark attendance  called by the student (or by the reader)\r\n    function markAttendance(string memory _nfcId) public {\r\n        require(studentsByNfc[_nfcId].isRegistered, \"Student not registered\");\r\n        attendance[_nfcId].push(AttendanceRecord(block.timestamp, true));\r\n        emit AttendanceMarked(_nfcId, block.timestamp);\r\n    }\r\n\r\n    // Get attendance history for an NFC ID\r\n    function getAttendance(string memory _nfcId)\r\n        public\r\n        view\r\n        returns (uint256[] memory, bool[] memory)\r\n    {\r\n        AttendanceRecord[] memory records = attendance[_nfcId];\r\n        uint256[] memory timestamps = new uint256[](records.length);\r\n        bool[] memory present = new bool[](records.length);\r\n        for (uint256 i = 0; i < records.length; i++) {\r\n            timestamps[i] = records[i].timestamp;\r\n            present[i] = records[i].present;\r\n        }\r\n        return (timestamps, present);\r\n    }\r\n}",
  "sourcePath": "C:\\Users\\marclain\\Documents\\4th year\\System\\Attendance\\contracts\\Attendance.sol",
  "compiler": {
    "name": "solc",
    "version": "0.8.21+commit.d9974bed.Emscripten.clang"
  },
  "schemaVersion": "3.4.16",
  "updatedAt": "2026-02-11T14:48:08.641Z",
  "networkType": "ethereum",
  "devdoc": {
    "kind": "dev",
    "methods": {},
    "version": 1
  },
  "userdoc": {
    "kind": "user",
    "methods": {},
    "version": 1
  }
}